:100000000C945E000C9486000C9486000C94860080
:100010000C9486000C9486000C9486000C94860048
:100020000C9486000C9486000C9486000C94840436
:100030000C9486000C9486000C9486000C94860028
:100040000C94E2030C9486000C9452040C942C043F
:100050000C9486000C9486000C9486000C94860008
:100060000C9486000C9486000000000024002700F9
:100070002A0000000000250028002B0004040404CE
:100080000404040402020202020203030303030342
:10009000010204081020408001020408102001021F
:1000A00004081020000000080002010000030407FB
:1000B00000000000000000006105E80711241FBED9
:1000C000CFEFD8E0DEBFCDBF11E0A0E0B1E0E0E7C8
:1000D000F5E102C005900D92A838B107D9F722E0EA
:1000E000A8E8B1E001C01D92AA36B207E1F710E01E
:1000F000CDE5D0E004C02197FE010E94A008CC35D8
:10010000D107C9F70E94E7050C94AB0A0C940000D4
:1001100090E0FC01EC55FF4F2491FC01E057FF4FAC
:100120003491FC01E458FF4FE491EE2309F43CC004
:10013000222339F1233091F038F42130A9F0223014
:1001400001F584B58F7D12C0273091F02830A1F0E1
:100150002430B9F4809180008F7D03C080918000AD
:100160008F77809380000DC084B58F7784BD09C0E0
:100170008091B0008F7703C08091B0008F7D809315
:10018000B000F0E0EE0FFF1FEE58FF4FA591B491C5
:100190009FB7F894611104C08C913095382302C048
:1001A000EC913E2B3C939FBF08953FB7F89480910C
:1001B000AF019091B001A091B101B091B20126B50B
:1001C000A89B05C02F3F19F00196A11DB11D3FBF8F
:1001D000BA2FA92F982F8827820F911DA11DB11D1D
:1001E000BC01CD0142E0660F771F881F991F4A9519
:1001F000D1F708958F929F92AF92BF92CF92DF92E4
:10020000EF92FF926B017C010E94D5004B015C01D3
:10021000C114D104E104F104F1F00E94D500DC0125
:10022000CB0188199909AA09BB09883E9340A10509
:10023000B10570F321E0C21AD108E108F10888EE97
:10024000880E83E0981EA11CB11CC114D104E104E6
:10025000F10419F7DDCFFF90EF90DF90CF90BF90C2
:10026000AF909F908F9008950895CF92DF92EF9274
:10027000FF920F931F93CF93DF936C017A018B0151
:10028000C0E0D0E0CE15DF0581F0D8016D918D0181
:10029000D601ED91FC910190F081E02DC601099508
:1002A000892B11F02196EECF7E01C701DF91CF910E
:1002B0001F910F91FF90EF90DF90CF90089580E015
:1002C00090E00895FC01538D448D252F30E0842F5C
:1002D00090E0821B930B541710F0CF96089501976E
:1002E0000895FC01918D828D981761F0828DDF0158
:1002F000A80FB11D5D968C91928D9F5F9F73928F19
:1003000090E008958FEF9FEF08952FB7F8948091B4
:10031000B3019091B401A091B501B091B6012FBF86
:100320008093BF019093C001A093C101B093C2011B
:1003300087EB91E00E94710197FF26C02FB7F894D8
:100340008091B3019091B401A091B501B091B60133
:100350002FBF4091BF015091C0016091C1017091C8
:10036000C201841B950BA60BB70B4091BB015091AA
:10037000BC016091BD017091BE0184179507A6076D
:10038000B707B0F28FEF9FEF0895FC01918D828D3A
:10039000981731F0828DE80FF11D858D90E008955A
:1003A0008FEF9FEF0895FC01918D228D892F90E0B2
:1003B000805C9F4F821B91098F739927089587EB6B
:1003C00091E00E94D30121E0892B09F420E0822FE3
:1003D0000895FC01848DDF01A80FB11DA35ABF4F02
:1003E0002C91848D90E001968F739927848FA68934
:1003F000B7892C93A089B1898C91837080648C9388
:10040000938D848D981306C00288F389E02D808136
:100410008F7D80830895EF92FF920F931F93CF9368
:10042000DF93EC0181E0888F9B8D8C8D981305C044
:10043000E889F989808185FD26C0F62E0B8D10E0B4
:100440000F5F1F4F0F731127E02E8C8DE8120CC029
:100450000FB607FCFACFE889F989808185FFF5CFCF
:10046000CE010E94E901F1CF8B8DFE01E80FF11D55
:10047000E35AFF4FF0829FB7F8940B8FEA89FB890C
:10048000808180620AC09FB7F894EE89FF896083FB
:10049000E889F98980818370806480839FBF81E0CF
:1004A00090E0DF91CF911F910F91FF90EF90089511
:1004B000CF93DF93EC01888D8823C9F0EA89FB890B
:1004C000808185FD05C0A889B9898C9186FD0FC002
:1004D0000FB607FCF5CF808185FFF2CFA889B989D7
:1004E0008C9185FFEDCFCE010E94E901E7CFDF912E
:1004F000CF91089580E090E0892B29F00E94DF01E0
:1005000081110C9400000895CF92DF92EF92FF9238
:10051000CF93DF93EC01603282E078070CF03DC0AE
:1005200077FD06C0653B71052CF064EB70E002C0FE
:1005300060E070E0898128E830E06901C81AD108DC
:1005400087FDD394CC0CDD1CCC0CDD1C0D2C000CD9
:10055000EE08FF088A8128E532E0281B310987FD73
:100560003395220F331F220F331FC901330FAA0BFC
:10057000BB0B9C01AD012C193D094E095F09DB0144
:100580000E94240824EB30E040E050E00E94FA078B
:10059000C20ED31EE41EF51EB60138813C3080F534
:1005A000298188E890E0821B910927FD9395880FA7
:1005B000991F880F991F6817790784F08A8148E589
:1005C00052E0481B510987FD5395440F551F440FB6
:1005D000551FCB01461757070CF4CA010297880F25
:1005E000991F4FB7F894232F30E0F901EE0FFF1F4A
:1005F0002E0F3F1FF901E657FE4F928381834FBFB5
:10060000DF91CF91FF90EF90DF90CF900895CF933F
:10061000DF93DC018C918C3008F06DC0CB01992701
:10062000FC01E057FF4F2491FC01E458FF4F8491F7
:10063000882399F090E0880F991FFC01E859FF4F3B
:10064000C591D491FC01EE58FF4F859194918FB7DD
:10065000F894E881E22BE8838FBF8C91E82FF0E0DB
:100660009F01220F331FE20FF31FE657FE4F6F73F8
:100670009081907C692B608311961C921197129641
:100680001C9212976CE00E9494089CE0899FB00134
:10069000112440E050E09B01240F351FF901EE0FBB
:1006A000FF1F2E0F3F1FF901E657FE4F908196FD69
:1006B00016C04F5F5F4F4C30510569F781110FC075
:1006C0001092800082E08093810010928500109249
:1006D0008400B19A80916F00826080936F00EC91EA
:1006E000F0E0CF01880F991FE80FF91FE657FE4F82
:1006F0008081806480838C91DF91CF9108956AE539
:1007000070E083E692E00E9484026AE570E080E691
:1007100092E00E9484026AE570E08DE592E00E941A
:10072000840260E070E08AE592E00C948402CF934A
:10073000DF93009779F0FC0101900020E9F73197F1
:10074000AF01481B590BBC0187EB91E00E943501BA
:10075000EC0102C0C0E0D0E042E050E068E171E0AE
:1007600087EB91E00E9435018C0F9D1FDF91CF91A7
:1007700008950E948D0A0F931F93CF93DF93EC018E
:1007800088819981009729F02A813B8126173707B4
:1007900088F48B016F5F7F4F0E94C709009761F05B
:1007A000998388831B830A832C813D81232B11F439
:1007B000FC01108281E001C080E0DF91CF911F91A8
:1007C0000F9108951F920F920FB60F9211242F933D
:1007D0003F938F939F93AF93BF938091B301909179
:1007E000B401A091B501B091B6013091AE0123E002
:1007F000230F2D3720F40196A11DB11D05C026E859
:10080000230F0296A11DB11D2093AE018093B30169
:100810009093B401A093B501B093B6018091AF015C
:100820009091B001A091B101B091B2010196A11DCA
:10083000B11D8093AF019093B001A093B101B0932B
:10084000B201BF91AF919F918F913F912F910F90E6
:100850000FBE0F901F9018951F920F920FB60F9218
:1008600011242F933F934F935F936F937F938F93B5
:100870009F93AF93BF93EF93FF9387EB91E00E9419
:10088000E901FF91EF91BF91AF919F918F917F917E
:100890006F915F914F913F912F910F900FBE0F90ED
:1008A0001F9018951F920F920FB60F9211242F933D
:1008B0008F939F93EF93FF93E091C701F091C8014D
:1008C0008081E091CD01F091CE0182FD12C0908136
:1008D0008091D0018F5F8F732091D101821751F0E9
:1008E000E091D001F0E0E954FE4F958F8093D00164
:1008F00001C08081FF91EF919F918F912F910F9077
:100900000FBE0F901F9018951F920F920FB60F9267
:1009100011242F933F934F935F936F937F938F9304
:100920009F93AF93BF93EF93FF938091880187FFCD
:1009300005C010928500109284001BC02091880190
:10094000022E000C330B8091890190E028173907A3
:1009500084F480918801082E000C990BFC01EE0FA5
:10096000FF1F8E0F9F1FFC01E657FE4F808186FD03
:1009700015C0809188018F5F809388012091880144
:10098000022E000C330B8091890190E02817390763
:10099000C4F4809188018C3064F113C08091880187
:1009A000082E000C990BFC01EE0FFF1F8E0F9F1FEE
:1009B000FC01E657FE4F808160E08F730E94880043
:1009C000D8CF8091840090918500049680349C4912
:1009D00018F480E49CE905C0809184009091850022
:1009E000049690938900809388008FEF809388010C
:1009F0003BC0209184003091850080918801082EB1
:100A0000000C990BFC01EE0FFF1F8E0F9F1FFC01C6
:100A1000E657FE4F81819281820F931F9093890048
:100A20008093880080918801082E000C990BFC01AE
:100A3000EE0FFF1F8E0F9F1FFC01E657FE4F8081B8
:100A400086FF12C080918801082E000C990BFC01D2
:100A5000EE0FFF1F8E0F9F1FFC01E657FE4F808198
:100A600061E08F730E948800FF91EF91BF91AF9179
:100A70009F918F917F916F915F914F913F912F91B6
:100A80000F900FBE0F901F901895FC019091890157
:100A90009C30A0F481E0890F809389019083892F95
:100AA00090E0FC01EE0FFF1F8E0F9F1FFC01E65729
:100AB000FE4F88EB9BE09283818308958FEF8083C4
:100AC00008951092BA011092B90188EE93E0A0E067
:100AD000B0E08093BB019093BC01A093BD01B093A3
:100AE000BE018AE091E09093B8018093B70185EC54
:100AF00090E09093C4018093C30184EC90E09093C4
:100B0000C6018093C50180EC90E09093C80180936A
:100B1000C70181EC90E09093CA018093C90182ECF7
:100B200090E09093CC018093CB0186EC90E0909381
:100B3000CE018093CD011092D0011092D10110927C
:100B4000D2011092D30183E692E00E94450580E62F
:100B500092E00E9445058DE592E00E9445058AE5F8
:100B600092E00E9445051092550210925402109294
:100B7000570210925602109259021092580260E0E9
:100B800070E084E592E00E94BB0320915402309112
:100B90005502811113C02115310519F0C9010E94B8
:100BA0003E0910925502109254021092590210926E
:100BB000580210925702109256020895109259024C
:100BC000109258026AE171E0C9010C94A40ACF9313
:100BD000DF93CDB7DEB728970FB6F894DEBF0FBE10
:100BE000CDBF789484B5826084BD84B5816084BDB6
:100BF00085B5826085BD85B5816085BD80916E00BB
:100C0000816080936E0010928100809181008260EB
:100C10008093810080918100816080938100809128
:100C200080008160809380008091B1008460809317
:100C3000B1008091B00081608093B00080917A0013
:100C4000846080937A0080917A00826080937A0039
:100C500080917A00816080937A0080917A00806828
:100C600080937A001092C100E091C701F091C80111
:100C700082E08083E091C301F091C4011082E09191
:100C8000C501F091C6018FEC80831092CF01E091F5
:100C9000CB01F091CC0186E08083E091C901F09115
:100CA000CA01808180618083E091C901F091CA010D
:100CB000808188608083E091C901F091CA018081C0
:100CC00080688083E091C901F091CA0180818F7DA5
:100CD000808369E070E083E692E00E9407036AE0A7
:100CE00070E080E692E00E9407036BE070E08DE523
:100CF00092E00E94070366E070E08AE592E00E94BD
:100D000007030E947F0380E4B82EB0927C0080919C
:100D10007A00806480937A0080917A0086FDFCCF0F
:100D2000809178002091790090E0922B813293405D
:100D300084F08BE191E00E94970360E070E08AE527
:100D400092E00E94840260ED77E080E090E00E94F3
:100D5000FA0087EB91E00E94D301181619060CF0F7
:100D600021C11A8219821C821B821E821D8260E0B0
:100D700070E0CE0101960E94BB0329813A81811166
:100D80000DC02115310519F0C9010E943E091A82D2
:100D900019821E821D821C821B8207C01E821D8238
:100DA0006AE171E0C9010E94A40A0E94850197FDD1
:100DB0001BC08F8318860D811E810F5F1F4FB801E6
:100DC000CE0101960E94BB03882379F329813A81E1
:100DD0008D819E81BE01695F7F4F820F931F0E94AC
:100DE000A40A1E830D83E1CF809154029091550295
:100DF000009741F069817A816115710509F0D5C0CC
:100E00000E943E0989819A819093550280935402F1
:100E10008B819C8190935702809356028D819E8195
:100E200090935902809358021A82198289819A817B
:100E30000E943E09C0905402D0905502C114D104C2
:100E400009F445C00091580210915902011511058D
:100E5000F1F1760147018FEF881A980AF701808136
:100E6000082E000C990B0E94EE07892B11F07401DB
:100E7000F1CF015011090C0D1D1DF8018081082EC4
:100E8000000C990B0E94EE07892B31F00E151F05FF
:100E900018F001501109F1CFA8014F5F5F4F4E19B3
:100EA0005F095093590240935802CE14DF0420F496
:100EB000B701C6010E94920AE0915402F0915502D6
:100EC0008091580290915902E80FF91F1082809189
:100ED000580290915902892B09F464C00091540280
:100EE0001091550266E471E0C8010E949B0A892BAB
:100EF00039F48EE491E00E9497036DE270E00EC039
:100F000064E671E0C8010E949B0A892B09F041C088
:100F10008CE691E00E94970367E870E083E692E038
:100F20000E94840268EE73E080E090E00E94FA0084
:100F300068E770E080E692E00E94840268E770E073
:100F40008DE592E00E94840268EE73E080E090E01C
:100F50000E94FA006AE570E08AE592E00E9484024D
:100F600068EE73E080E090E00E94FA006AE570E0CD
:100F700080E692E00E9484026AE570E08DE592E0EE
:100F80000E94840268EE73E080E090E00E94FA0024
:100F900009C062E871E0C8010E949B0A892B11F424
:100FA0000E947F030E947A02B0CE40915602509177
:100FB00057022D813E814217530708F421CF0E942A
:100FC000A40A8D819E8190935902809358022ECF5E
:100FD00080915402909155020C943E0991110C9409
:100FE000F707803219F089508550C8F7089599277E
:100FF00088270895052E97FB1EF400940E9411087F
:1010000057FD07D00E94630807FC03D04EF40C94F0
:10101000110850954095309521953F4F4F4F5F4FA8
:10102000089590958095709561957F4F8F4F9F4F54
:1010300008950E948508A59F900DB49F900DA49FD0
:10104000800D911D11240895B7FF0C9419080E947A
:101050001908821B930B08952F923F924F925F9233
:101060006F927F928F929F92AF92BF92CF92DF92B8
:10107000EF92FF920F931F93CF93DF93CDB7DEB71D
:10108000CA1BDB0B0FB6F894DEBF0FBECDBF0994B1
:101090002A88398848885F846E847D848C849B8408
:1010A000AA84B984C884DF80EE80FD800C811B8116
:1010B000AA81B981CE0FD11D0FB6F894DEBF0FBE45
:1010C000CDBFED010895A1E21A2EAA1BBB1BFD01A5
:1010D0000DC0AA1FBB1FEE1FFF1FA217B307E40717
:1010E000F50720F0A21BB30BE40BF50B661F771F6F
:1010F000881F991F1A9469F760957095809590954F
:101100009B01AC01BD01CF010895A29FB001B39F27
:10111000C001A39F700D811D1124911DB29F700D00
:10112000811D1124911D0895991B79E004C0991F18
:10113000961708F0961B881F7A95C9F78095089531
:10114000EE0FFF1F0590F491E02D09940F931F936C
:10115000CF93DF938230910510F482E090E0E0912C
:101160006802F091690220E030E0A0E0B0E0309742
:1011700019F1408151810281138148175907C8F044
:101180008417950769F4109731F012960C93129713
:1011900013961C9327C0009368021093690222C023
:1011A0002115310519F04217530718F49A01BD01B2
:1011B000EF01DF01F801DBCF21153105F9F0281B24
:1011C000390B2430310580F48A819B8161157105CA
:1011D00021F0FB019383828304C090936902809382
:1011E0006802FE01329644C0FE01E20FF31F8193B4
:1011F000919322503109398328833AC020916602A5
:1012000030916702232B41F42091020130910301B8
:101210003093670220936602209100013091010112
:101220002115310541F42DB73EB74091040150918D
:101230000501241B350BE0916602F0916702E2176D
:10124000F307A0F42E1B3F0B2817390778F0AC01E9
:101250004E5F5F4F2417350748F04E0F5F1F5093C6
:101260006702409366028193919302C0E0E0F0E050
:10127000CF01DF91CF911F910F910895CF93DF930D
:10128000009709F481C0FC01329713821282A09169
:101290006802B0916902109781F420813181820F38
:1012A000931F20916602309167022817390751F584
:1012B000F0936702E093660267C0ED0120E030E042
:1012C000CE17DF0740F44A815B819E01411551052D
:1012D000F1F0EA01F5CFD383C28340815181840FBD
:1012E000951FC817D90759F488819981840F951FD4
:1012F0000296918380838A819B81938382832115C7
:10130000310529F4F0936902E09368023DC0E901D8
:10131000FB83EA8349915991C40FD51FEC17FD0750
:1013200061F480819181840F951F0296E901998370
:101330008883828193819B838A83E0E0F0E0129628
:101340008D919C911397009719F0FD01DC01F7CF67
:101350008D919C9111979D012E5F3F4F820F931F9E
:1013600020916602309167022817390769F4309797
:1013700029F4109269021092680202C0138212824C
:10138000B0936702A0936602DF91CF910895A0E029
:10139000B0E0EDECF9E00C943008EC01009721F49A
:1013A000CB010E94A608B4C0FC01E60FF71F9C0108
:1013B00022503109E217F30708F4A8C0D9010D91B2
:1013C0001C91119706171707B0F00530110508F4A6
:1013D0009BC0C80104978617970708F495C0025070
:1013E0001109061B170B019311936D937C93CF0189
:1013F0000E943E0989C05B01A01AB10A4C01800E0F
:10140000911EA0916802B0916902612C712CE12CAF
:10141000F12C109709F446C08D919C911197A81555
:10142000B905B1F56C0142E0C40ED11CCA14DB044D
:1014300078F14C018A189B08640142E0C40ED11C6B
:101440001296BC9012971396AC91B5E0CB16D104CE
:1014500040F0B282A38391828082D9016D937C9304
:1014600009C00E5F1F4F800F911FF9019183808388
:10147000EB2DFA2FE114F10431F0D7011396FC9310
:10148000EE93129741C0F0936902E09368023CC06A
:101490006816790608F43C017D0112960D90BC9106
:1014A000A02DB7CF809166029091670288169906A9
:1014B000E1F466167706C8F480910001909101016D
:1014C000009741F48DB79EB74091040150910501FA
:1014D000841B950BE817F907C8F4F0936702E093B3
:1014E0006602F901718360830FC0CB010E94A608D8
:1014F0007C01009759F0A801BE010E94920ACE011A
:101500000E943E09C70104C0CE0102C080E090E005
:10151000CDB7DEB7EEE00C944C0881E090E0F89493
:101520000C94AB0AFB01DC0102C001900D9241500A
:101530005040D8F70895FB01DC018D91019080198E
:101540000110D9F3990B0895FB01DC0101900D9274
:101550000020E1F7089510E0CDE5D0E004C0FE01E1
:101560000E94A0082196CE35D107C9F7F894FFCF85
:1015700000006A028000000000000B0235016201D9
:101580005802D3017101C5010D0A00454D4552476E
:10159000454E43593A204772697020746F6F20742A
:1015A00069676874212052656C656173696E672094
:1015B000746F6F6C2E005343414C50454C00506982
:1015C000636B696E67207570205363616C70656C26
:1015D0002E2E2E00464F5243455053005069636BE8
:1015E000696E6720757020466F72636570732E2E6A
:0815F0002E0052455345540042
:00000001FF
